:100000000C94E0000C9408010C9408010C94080175
:100010000C9408010C9408010C9408010C9408013C
:100020000C9408010C9408010C9408010C9408012C
:100030000C9408010C9408010C9408010C9408011C
:100040000C943B010C9408010C942D170C94071789
:100050000C9408010C9408010C9408010C940801FC
:100060000C949B140C94080100407A10F35A00A0E1
:10007000724E18090010A5D4E80000E87648170071
:1000800000E40B54020000CA9A3B000000E1F505B1
:10009000000080969800000040420F000000A086FB
:1000A00001000000102700000000E803000000002D
:1000B0006400000000000A000000000001000000D1
:1000C00000002C76D888DC674F0823DFC1DFAE59EB
:1000D000E1B1B796E5E3E453C63AE651997696E87E
:1000E000E6C28426EB898C9B62ED407C6FFCEFBC02
:1000F0009C9F40F2BAA56FA5F490055A2AF75C932D
:100100006B6CF9676DC11BFCE0E40D47FEF520E662
:10011000B500D0ED902E0300943577050080841E45
:10012000080000204E0A000000C80C333333330FA0
:10013000986E12831141EF8D2114893BE65516CF3D
:10014000FEE6DB18D1844B381BF77C1D901DA4BB49
:10015000E424203284725E228100C9F124ECA1E5FE
:100160003D270000000023002600290000000000B9
:10017000240027002A0000000000250028002B0092
:10018000040404040404040402020202020203033D
:100190000303030301020408102040800102040845
:1001A00010200102040810200000000800020100D5
:1001B000000304070000000000000000C5198419B6
:1001C00011241FBECFEFD8E0DEBFCDBF26E0A2E4F2
:1001D000B2E001C01D92AF35B207E1F712E0A0E036
:1001E000B1E0ECE9F5E402C005900D92A234B1074C
:1001F000D9F710E0CFEDD0E004C02197FE010E94B6
:10020000BB22CE3DD107C9F70E94F8190C94341BCC
:100210000C9400003FB7F89480918C0290918D026D
:10022000A0918E02B0918F0226B5A89B05C02F3FEA
:1002300019F00196A11DB11D3FBFBA2FA92F982F0C
:100240008827BC01CD01620F711D811D911D42E007
:10025000660F771F881F991F4A95D1F708952FB70A
:10026000F894609188027091890280918A0290913D
:100270008B022FBF08951F920F920FB60F92112479
:100280002F933F938F939F93AF93BF938091880257
:1002900090918902A0918A02B0918B0230918702DD
:1002A00023E0230F2D3758F50196A11DB11D209392
:1002B00087028093880290938902A0938A02B09368
:1002C0008B0280918C0290918D02A0918E02B09150
:1002D0008F020196A11DB11D80938C0290938D0217
:1002E000A0938E02B0938F02BF91AF919F918F9197
:1002F0003F912F910F900FBE0F901F90189526E8F9
:10030000230F0296A11DB11DD2CF4F925F926F9223
:100310007F928F929F92AF92BF92CF92DF92EF9295
:10032000FF920F931F93CF93DF93CDB7DEB7A297C2
:100330000FB6F894DEBF0FBECDBF8EE480937C0075
:1003400062E070E080E090E00E945E1980917A00A7
:10035000806480937A0080917A0086FDFCCF2091A2
:1003600078003091790040E050E064EB7BE281E17D
:1003700090E00E949422DA01C90183539140A109BF
:10038000B10940913C0650913D0660913E06709146
:100390003F06840F951FA61FB71F80933C069093BE
:1003A0003D06A0933E06B0933F060E942F01809128
:1003B0000101811176C08EE00E94B418092E000C54
:1003C000AA0BBB0B4091400650914106609142063A
:1003D00070914306840F951FA61FB71F8093400698
:1003E00090934106A0934206B093430680E10E9499
:1003F000B418092E000CAA0BBB0B40915406509167
:1004000055066091560670915706840F951FA61FDA
:10041000B71F8093540690935506A0935606B09349
:1004200057068091830290918402A0918502B09139
:1004300086020196A11DB11D8093830290938402D0
:10044000A0938502B09386020E942F0100911804A8
:100450001091190420911A0430911B04601B710B38
:10046000820B930B61367A4E8105910510F40C9442
:10047000770E8091010181110C94770E81E08093B9
:1004800001010E942F016093180470931904809356
:100490001A0490931B0461E086E00E94CB180C9430
:1004A0008E0E8EE00E94B418092E000CAA0BBB0B16
:1004B000409150065091510660915206709153063A
:1004C000840F951FA61FB71F809350069093510667
:1004D000A0935206B09353068FE00E94B418092EE1
:1004E000000CAA0BBB0B409144065091450660914D
:1004F000460670914706840F951FA61FB71F80936D
:10050000440690934506A0934606B093470680E1C3
:100510000E94B418092E000CAA0BBB0B4091480690
:100520005091490660914A0670914B06840F951FC1
:10053000A61FB71F8093480690934906A0934A06CA
:10054000B0934B0680917F0290918002A09181022E
:10055000B09182020196A11DB11D80937F029093FC
:100560008002A0938102B09382026ECF68E770E0B0
:1005700080E090E00C940A0F80E090E0A0E8BFEBF0
:1005800080937B0290937C02A0937D02B0937E02C5
:10059000109200010C94460F6091900270E080E090
:1005A00090E00E94DD1D9B01AC0160912C067091D2
:1005B0002D0680912E0690912F060E944421609373
:1005C0002C0670932D0680932E0690932F060E9482
:1005D000A313882349F0809196028B3059F120F0C3
:1005E0008551823008F4BCC760E070E080EC9FE782
:1005F00028C06091900270E080E090E00E94DD1DD4
:1006000020E030E040E853E40E943E1E6B017C0194
:100610006091910270E080E090E00E94DF1DA701F0
:1006200096010E9444212DEC3CEC4CEC5DE30E94D1
:100630003E1EB9CF6091920270E080E090E00E948F
:10064000DD1D9B01AC0160913006709131068091F7
:100650003206909133060E944421609330067093D5
:1006600031068093320690933306809102018823ED
:1006700009F4F9C10E948B139C0140E050E0809185
:10068000BD029091BE02281B390B41095109A0916E
:10069000BB02B091BC020E94FC1E6B017C01BFE05A
:1006A000F594E794D794C794BA95D1F76091B502C1
:1006B0007091B602072E000C880B990B1BE0660F99
:1006C000771F881F991F1A95D1F72091B702309193
:1006D000B802032E000C440B550B2C0D3D1D4E1D76
:1006E0005F1D0E949422CA01B9016C0D7D1D8E1DF3
:1006F0009F1D685F7F4F8F4F9F4F04E095958795B3
:10070000779567950A95D1F70E94DF1D20E030E0CC
:1007100040E251E40E94B0219B01AC01609134069B
:100720007091350680913606909137060E944421DB
:10073000609334067093350680933606909337069F
:100740000E948B134C01A12CB12C1091A802129580
:10075000110F110F107C1C5C87E70E94AD1164EF34
:1007600081EC92E00E94F710612F81EC92E00E94F0
:10077000F7100E94AA118091A802811117C765E0A5
:1007800070E080E090E00E945E1986EF0E94C51143
:100790006C01E12CF12CFE2CED2CDC2CCC2488EF10
:1007A0000E94EE11C82A1091A8028091BD0290917A
:1007B000BE02A5019401281B390B41095109A091E2
:1007C000BB02B091BC020E94FC1E2B013C01AFE0B9
:1007D0007594679457944794AA95D1F76091B502A0
:1007E0007091B602072E000C880B990BBBE0660FC8
:1007F000771F881F991FBA95D1F72091B7023091C2
:10080000B802032E000C440B550B240D351D461D5C
:10081000571D0E949422420E531E641E751E30EA1C
:10082000431A3FE0530A61087108A3019201C30112
:10083000B2010E9462224B015C010CE0B594A794C6
:10084000979487940A95D1F7A091AD02B091AE022A
:100850000E94B3229B01AC018DE0559547953795D9
:1008600027958A95D1F72F8F38A349A35AA3A09132
:10087000AF02B091B002A50194010E94B3229C0185
:10088000552737FD5095452F8F8D98A1A9A1BAA165
:10089000280F391F4A1F5B1F2E5F3F4F4F4F5F4F7F
:1008A00062E055954795379527956A95D1F7305869
:1008B0004F4F5F4FA091B902B091BA020E94FC1E47
:1008C0009B01AC017FE056954795379527957A9522
:1008D000D1F72F8F38A349A35AA388E090E0811B5A
:1008E000910904C0F694E794D794C7948A95D2F7F7
:1008F000A091B102B091B202A50194010E94B3226D
:100900004B015C01EBE0B594A79497948794EA952A
:10091000D1F7A091AB02B091AC02A30192010E9469
:10092000B322FBE09595879577956795FA95D1F772
:10093000680D791D8A1D9B1D8090A9029090AA02C6
:10094000092C000CAA08BB08A2E0880C991CAA1C60
:10095000BB1CAA95D1F7680D791D8A1D9B1D012E20
:1009600004C0660F771F881F991F0A94D2F76E5F25
:100970007F4F8F4F9F4F24E030E040E050E00E94D7
:100980009422D701C601821B930BA40BB50B9C01CB
:10099000AD0160E573EC80E090E004C0969587952A
:1009A000779567951A95D2F70E94622297FD11C636
:1009B000660F771F881F991F2F8D38A149A15AA153
:1009C0000E94722269017A019927F7FC9A958F2D6E
:1009D0007E2D6D2D9B01AC010E9462229B01AC011A
:1009E000AEEDBBE00E94FC1E4B015C01A3E4B3EE44
:1009F000A70196010E94B622BC01992777FD909528
:100A0000892F4501BB2497FCB094AB2C680D791D50
:100A10008A1D9B1D6153714F8F4F9F4F54E09595D9
:100A20008795779567955A95D1F76C0D7D1D8E1D2D
:100A30009F1D0E94DF1D2FE632E545E053E40E9432
:100A4000B021209138063091390640913A065091F4
:100A50003B060E94442160933806709339068093C8
:100A60003A0690933B066AEF70E080E090E00E94C7
:100A70005E198091770290917802A0917902B091ED
:100A80007A026C017D01EFEFCE1ADE0AEE0AFE0A51
:100A900084369105A105B1050CF4A8C580908302A8
:100AA00090908402A0908502B090860240907302DC
:100AB000509074026090750270907602F4E18F1687
:100AC0009104A104B1040CF479C020916F0230911B
:100AD000700240917102509172022F8F38A349A386
:100AE0005AA38201065F1F4F000F111F000F111F35
:100AF000045E1B4F60914006709141068091420652
:100B000090914306A50194010E949422CA01B90163
:100B10000E94DF1D20E030EC4FE754E40E94B0213A
:100B20002F8D38A149A15AA10E943E1ED8016D9374
:100B30007D938D939C931397820102591F4F000F51
:100B4000111F000F111F045E1B4F6091540670911E
:100B500055068091560690915706A50194010E9472
:100B60009422CA01B9010E94DF1D2AE939E94CEC3F
:100B700052E40E94B0212F8D38A149A15AA10E94B0
:100B80003E1EF80160837183828393831092400636
:100B9000109241061092420610924306109254069B
:100BA0001092550610925606109257061092830224
:100BB00010928402109285021092860280907F0229
:100BC00090908002A0908102B0908202F4E18F1692
:100BD0009104A104B1040CF4ACC020916F023091D7
:100BE000700240917102509172022F8F38A349A375
:100BF0005AA3820108581F4F000F111F000F111F29
:100C0000045E1B4F60915006709151068091520610
:100C100090915306A50194010E949422CA01B90142
:100C20000E94DF1D20E030EC4FE754E40E94B02129
:100C30002F8D38A149A15AA10E943E1ED8016D9363
:100C40007D938D939C93139782010C5E1F4F000F31
:100C5000111F000F111F045E1B4F6091440670911D
:100C600045068091460690914706A50194010E9491
:100C70009422CA01B9010E94DF1D2AE939E94CEC2E
:100C800052E40E94B0212F8D38A149A15AA10E949F
:100C90003E1EF80160837183828393838201025E2A
:100CA0001F4F000F111F000F111F045E1B4F60919B
:100CB00048067091490680914A0690914B06A5011D
:100CC00094010E949422CA01B9010E94DF1D20E014
:100CD00030EC4FE754E40E94B0212F8D38A149A198
:100CE0005AA10E943E1ED8016D937D938D939C93D3
:100CF00013971092440610924506109246061092E1
:100D00004706109248061092490610924A06109221
:100D10004B061092500610925106109252061092F5
:100D2000530610927F02109280021092810210925C
:100D3000820260913C0670913D0680913E06909142
:100D40003F06A70196010E949422CA01B9010E94A0
:100D5000DF1D20E030E04AE754E40E94B0214B015F
:100D60005C01F201EE0FFF1FEE0FFF1FE45EFB4F71
:100D700060837183828393838201085D1F4F000F1C
:100D8000111F000F111F045E1B4F60914C067091E4
:100D90004D0680914E0690914F06A70196010E9444
:100DA0009422CA01B9010E94DF1D20E030EC4FE718
:100DB00054E40E94B021A50194010E943E1E20E04F
:100DC00030E048E251E40E943E1EF80160837183E6
:100DD00082839383C701B6010E94DF1D6B017C01F2
:100DE00082010E5C1F4F000F111F000F111F045EC8
:100DF0001B4F9B01AC0160912406709125068091E8
:100E00002606909127060E94B021D8016D937D930C
:100E10008D939C9313978201045C1F4F000F111F49
:100E2000000F111F045E1B4FA70196016091280659
:100E30007091290680912A0690912B060E94B0217C
:100E4000F801608371838283938382010A5B1F4F61
:100E5000000F111F000F111F045E1B4FA701960109
:100E600060912C0670912D0680912E0690912F0690
:100E70000E94B021D8016D937D938D939C9313971D
:100E80008201005B1F4F000F111F000F111F045E36
:100E90001B4FA70196016091300670913106809139
:100EA0003206909133060E94B021F801608371836D
:100EB00082839383809102018823A9F18201065ADB
:100EC0001F4F000F111F000F111F045E1B4FA701C2
:100ED00096016091340670913506809136069091A6
:100EE00037060E94B021D8016D937D938D939C931A
:100EF000139782010C591F4F000F111F000F111F74
:100F0000045E1B4FA7019601609138067091390667
:100F100080913A0690913B060E94B021F8016083CF
:100F200071838283938310923C0610923D06109247
:100F30003E0610923F0610924C0610924D061092FB
:100F40004E0610924F06109224061092250610921B
:100F50002606109227061092280610922906109253
:100F60002A0610922B0610922C0610922D06109233
:100F70002E0610922F061092300610923106109213
:100F800032061092330610923406109235061092F3
:100F900036061092370610923806109239061092D3
:100FA0003A0610923B061092770210927802109245
:100FB000790210927A02D301C2010196A11DB11DDE
:100FC0008093730290937402A0937502B09376029B
:100FD0000A97A105B1055CF081E080936E02109242
:100FE0007302109274021092750210927602809130
:100FF0006E02882361F08CE194E00E94641160939A
:101000006F027093700280937102909372028FEC62
:1010100092E00E944A11181619060CF08AC28FEC51
:1010200092E00E9428118A3009F00AC580916E0270
:10103000882309F4E4C28CE194E00E946411609377
:101040006F027093700280937102909372028CEF22
:1010500095E00E94641160936A0270936B02809322
:101060006C0290936D0284E494E00E9464116B0121
:101070007C018CE694E00E94641160936602709398
:101080006702809368029093690284E994E00E9469
:101090006411609362027093630280936402909380
:1010A000650284ED95E00E94641160935E02709386
:1010B0005F0280936002909361028CEB94E00E9447
:1010C000641160935A0270935B0280935C02909368
:1010D0005D0284EE94E00E94641160935602709366
:1010E000570280935802909359028CE595E00E9434
:1010F0006411609352027093530280935402909350
:10110000550284E395E00E94641160934E0270934F
:101110004F0280935002909351028CE095E00E9420
:10112000641160934A0270934B0280934C02909337
:101130004D02809102018823C1F084E895E00E946D
:101140006411609346027093470280934802909323
:1011500049028CEA95E00E94641160934202709308
:101160004302809344029093450269E271E0CE010C
:101170000D960E94791880906A0290906B02A09060
:101180006C02B0906D0260E371E0CE0101960E94A6
:101190007918BE016F5F7F4FCE0107960E947018CD
:1011A000B501A401CE0107960E948A17BE01635FB4
:1011B0007F4F0E942E18B701A6010E948A17BC011A
:1011C00082EA92E00E944118CE0107960E946B18B5
:1011D000CE0101960E946B18CE010D960E946B18ED
:1011E000C0906202D0906302E0906402F0906502C9
:1011F00065E371E0CE010D960E9479188090660239
:1012000090906702A0906802B09069026CE371E070
:10121000CE0101960E947918BE016F5F7F4FCE010B
:1012200007960E947018B501A401CE0107960E948E
:101230008A17BE01635F7F4F0E942E18B701A60177
:101240000E948A170E948213CE0107960E946B1893
:10125000CE0101960E946B18CE010D960E946B186C
:10126000C0905E02D0905F02E0906002F090610258
:1012700063E471E0CE0101960E947918BE016F5FB0
:101280007F4FCE0107960E947018B701A601CE01CC
:1012900007960E948A170E948213CE0107960E9429
:1012A0006B18CE0101960E946B180E945F12C090CD
:1012B0005602D0905702E0905802F09059026BE429
:1012C00071E0CE0143960E94791880906F02909051
:1012D0007002A0907102B090720263E571E0CE01DD
:1012E0000D960E94791840905A0250905B026090CF
:1012F0005C0270905D026BE571E0CE0101960E9488
:101300007918BE016F5F7F4FCE0107960E9470185B
:10131000B301A201CE0107960E948A17BE01635F46
:101320007F4F0E942E18B501A4010E948A17BE01AA
:101330006D5E7F4F0E942E18B701A6010E948A178A
:10134000BC0182EA92E00E944118CE0107960E94F9
:101350006B18CE0101960E946B18CE010D960E946B
:101360006B18CE0143960E946B1880910001882370
:1013700029F1C0904A02D0904B02E0904C02F090CC
:101380004D0261E671E0CE0101960E947918BE011E
:101390006F5F7F4FCE0107960E947018B701A601BC
:1013A000CE0107960E948A170E948213CE010796EB
:1013B0000E946B18CE0101960E946B1826E636E655
:1013C00046EC52E460914E0270914F0280915002BF
:1013D000909151020E945822181664F480E090E027
:1013E000A8ECB2E480934E0290934F02A093500277
:1013F000B0935102C0905202D0905302E090540238
:10140000F090550267E671E0CE010D960E947918C2
:1014100080904E0290904F02A0905002B0905102E6
:101420006EE671E0CE0101960E947918BE016F5FF1
:101430007F4FCE0107960E947018B501A401CE011E
:1014400007960E948A17BE01635F7F4F0E942E1885
:10145000B701A6010E948A170E948213CE01079647
:101460000E946B18CE0101960E946B18CE010D965A
:101470000E946B180E945F1280910201882309F478
:1014800045C0C0904602D0904702E0904802F090DC
:10149000490265E771E0CE010D960E9479188090AF
:1014A000420290904302A0904402B09045026CE743
:1014B00071E0CE0101960E947918BE016F5F7F4FE7
:1014C000CE0107960E947018B501A401CE010796BF
:1014D0000E948A17BE01635F7F4F0E942E18B701DA
:1014E000A6010E948A17BC0182EA92E00E9441187C
:1014F000CE0107960E946B18CE0101960E946B18D0
:10150000CE010D960E946B180E945F1263E871E095
:10151000CE0101960E947918CE0101960E94821395
:10152000CE0101960E946B180E946F1281E0809399
:101530000001A2960FB6F894DEBF0FBECDBFDF91BB
:10154000CF911F910F91FF90EF90DF90CF90BF90C0
:10155000AF909F908F907F906F905F904F90089585
:1015600010919202612F6F7770E080E090E00E940E
:10157000DF1D20E030E040E853E40E943E1E6B0196
:101580007C016091930270E080E090E00E94DF1D9A
:10159000A70196010E9444212DEC3CEC4CEC5DE34C
:1015A0000E943E1E17FF4DC890584BC8813029F449
:1015B00068E070E080E090E0E6C8823029F46EE0F8
:1015C00070E080E090E0DFC86AE170E080E090E0E9
:1015D000DAC82F8D38A149A15AA10E94722269014F
:1015E0007A01CC0CDD1CEE1CFF1CEEC9C092770208
:1015F000D0927802E0927902F0927A0208CD60915E
:1016000048067091490680914A0690914B062091B8
:101610007F023091800240918102509182020E94AB
:10162000942269017A0165E371E0CE0143960E943C
:101630007918609144067091450680914606909114
:10164000470620917F0230918002409181025091A3
:1016500082020E94942249015A016CE371E0CE019A
:101660000D960E9479186091400670914106809114
:1016700042069091430620917F0230918002409172
:101680008102509182020E94942229013A0160E372
:1016900071E0CE0101960E947918BE016F5F7F4F05
:1016A000CE0107960E947018B301A201CE010796E1
:1016B0000E94C117BE01635F7F4F0E942E18B501C3
:1016C000A4010E94C117BE016D5E7F4F0E942E18BB
:1016D000B701A6010E94C117BC0182EA92E00E94F4
:1016E0004118CE0107960E946B18CE0101960E9408
:1016F0006B18CE010D960E946B18CE0143960E9486
:101700006B180E945F12609177027091780280914D
:10171000790290917A020E94DF1D9B01AC016091D9
:1017200024067091250680912606909127060E9436
:10173000B0216B017C016BE471E0CE0143960E9405
:10174000791860913C0670913D0680913E0690911B
:101750003F062091770230917802409179025091B2
:101760007A020E949422CA01B9010E94DF1D20E082
:1017700030E04AE754E40E94B0214B015C0163E58C
:1017800071E0CE010D960E94791860914C0670911F
:101790004D0680914E0690914F0620917702309130
:1017A00078024091790250917A020E949422290194
:1017B0003A016BE571E0CE0101960E947918BE01F5
:1017C0006F5F7F4FCE0107960E947018B301A20190
:1017D000CE0107960E94C117BE01635F7F4F0E9432
:1017E0002E18B501A4010E948A17BE016D5E7F4FBD
:1017F0000E942E18B701A6010E948A17BC0182EA36
:1018000092E00E944118CE0107960E946B18CE010B
:1018100001960E946B18CE010D960E946B18CE01A6
:1018200043960E946B180E945F12809100018823EA
:10183000C1F1609177027091780280917902909164
:101840007A020E94DF1D9B01AC0160912806709115
:10185000290680912A0690912B060E94B0216B01E7
:101860007C0161E671E0CE0101960E947918BE010B
:101870006F5F7F4FCE0107960E947018B701A601D7
:10188000CE0107960E948A17BC0182EA92E00E946C
:101890004118CE0107960E946B18CE0101960E9456
:1018A0006B18609177027091780280917902909123
:1018B0007A020E94DF1D9B01AC016091300670919D
:1018C000310680913206909133060E94B0216B015F
:1018D0007C0167E671E0CE010D960E947918609157
:1018E0007702709178028091790290917A020E9439
:1018F000DF1D9B01AC0160912C0670912D0680913B
:101900002E0690912F060E94B0214B015C016EE6DD
:1019100071E0CE0101960E947918BE016F5F7F4F82
:10192000CE0107960E947018B501A401CE0107965A
:101930000E948A17BE01635F7F4F0E942E18B70175
:10194000A6010E948A170E948213CE0107960E9468
:101950006B18CE0101960E946B18CE010D960E9465
:101960006B180E945F1280910201882309F465C000
:1019700060917702709178028091790290917A0259
:101980000E94DF1D9B01AC01609134067091350609
:1019900080913606909137060E94B0216B017C0140
:1019A00065E771E0CE010D960E947918609177028B
:1019B000709178028091790290917A020E94DF1DE5
:1019C0009B01AC01609138067091390680913A060E
:1019D00090913B060E94B0214B015C016CE771E0E5
:1019E000CE0101960E947918BE016F5F7F4FCE0134
:1019F00007960E947018B501A401CE0107960E94B7
:101A00008A17BE01635F7F4F0E942E18B701A6019F
:101A10000E948A17BC0182EA92E00E944118CE011E
:101A200007960E946B18CE0101960E946B18CE019A
:101A30000D960E946B180E945F1262E971E068CDFA
:101A4000843409F0F3C081EA91E00E945D128AEAD1
:101A500091E00E949C1180EB91E00E949C110CE1AE
:101A600014E0C12CD12C76015801412C512C3201AB
:101A700087EB91E00E945D12C701B6010E947D12C2
:101A80008FEB91E00E945D12C301B2010E947D12B2
:101A900082EC91E00E945D12D5016D917D918D9156
:101AA0009D915D010E94AF12BFEF4B1A5B0A6B0A5A
:101AB0007B0AEAE04E16510461047104C9F685ED13
:101AC00091E00E949C11085D1F4FFFEFCF1ADF0AC3
:101AD000EF0AFF0A2DE0C216D104E104F10421F659
:101AE00004E216E0C12CD12C760185EC91E00E9435
:101AF0005D12C701B6010E947D1282EC91E00E9446
:101B00005D12D8016D917D918D919D918D010E9405
:101B1000AF12BFEFCB1ADB0AEB0AFB0AE6E0CE16E8
:101B2000D104E104F10409F70CE316E0C12CD12C37
:101B300076018CEC91E00E945D12C701B6010E9413
:101B40007D1282EC91E00E945D12D8016D917D9131
:101B50008D919D918D010E947D1283ED91E00E94F7
:101B60008411BFEFCB1ADB0AEB0AFB0AE7E0CE16C3
:101B7000D104E104F104E9F664ED71E0CE01499687
:101B80000E947918009173021091740266ED71E061
:101B9000CE0143960E94791864ED71E0CE010D9656
:101BA0000E947918E0907702F09078026FED71E072
:101BB000CE0101960E947918BE016F5F7F4FCE0162
:101BC00007960E947018B701CE0107960E94F81779
:101BD000BE01635F7F4F0E942E18BE016D5E7F4F76
:101BE0000E942E18B8010E94F817BE01675E7F4F51
:101BF0000E942E18BC0182EA92E00E944118CE0198
:101C000007960E946B18CE0101960E946B18CE01B8
:101C10000D960E946B18CE0143960E946B18CE0160
:101C200049960E946B180E946F1283CC833509F08D
:101C300080CC81EA91E00E945D128AEA91E00E94E4
:101C40009C1185EE91E00E949C11C12CD12C760153
:101C5000C39400E010E0FFE7CF16D104E104F104E3
:101C6000E1F18C2D0E94AD110E94AA1181111DC0BD
:101C700081EF91E00E945D1220E1C216D10424F4AC
:101C80008BEF91E00E945D1240E1C701B6010E9416
:101C90000D128DEF91E00E949C110F5F1F4F4FEFCF
:101CA000C41AD40AE40AF40AD6CF8430C1F781E01A
:101CB00092E00E945D1230E1C316D10424F48BEF50
:101CC00091E00E945D1240E1C701B6010E940D1231
:101CD00083ED91E00E948411E2CF012B29F48FE083
:101CE00092E00E949C1125CC85E292E0FACF0E94FE
:101CF0002F01009118041091190420911A043091B9
:101D00001B04601B710B820B930B61397F45814073
:101D1000910520F0809101018111E8C081E10E94CC
:101D2000B418092E000CAA0BBB0B40914C06509125
:101D30004D0660914E0670914F06840F951FA61FA9
:101D4000B71F80934C0690934D06A0934E06B09318
:101D50004F0688EC80937C0080917A0080688093A5
:101D60007A0064E170E080E090E00E945E1980916A
:101D70007A00806480937A0080917A0086FDFCCF9F
:101D8000609178007091790080E090E00E94DD1D04
:101D90002EEA37E242EA53E40E94432126EF38E27A
:101DA0004CE95FE30E94B02120E030E040E151E4E3
:101DB0000E94442120912406309125064091260658
:101DC000509127060E9444216093240670932506B3
:101DD000809326069093270680915A068032E0F081
:101DE000823210F08332C1F4809158060E94AD1106
:101DF00060915A0681EC92E00E94F7100E94AA11AD
:101E000080915A06833211F00C94B60260E170E0C2
:101E100080E090E00E945E1962E070E080915806D8
:101E2000909159060E94B71181EC92E00E94AC108B
:101E300000E010E0182F81EC92E00E94AC10802BA3
:101E4000912BBC0180E090E00E94DD1D2AE939E978
:101E500049E95FE30E94B0210E94292280E090E0DE
:101E60000E94DD1D6B017C0120E034E545E557E46F
:101E70000E94D81D882311F40C94BC02C0927B02EE
:101E8000D0927C02E0927D02F0927E0220917B0251
:101E900030917C0240917D0250917E026091280633
:101EA0007091290680912A0690912B060E94442168
:101EB000609328067093290680932A0690932B0638
:101EC0000E94A313882361F0809196028B3011F455
:101ED0000C94CC0228F08551823010F40C94F90255
:101EE00060E070E080EC9FE70C94D3021092010157
:101EF0000E942F01609318047093190480931A04B0
:101F000090931B0460E00C944C02613208F048C0CE
:101F10009091F7039111FCCF92E09093F7034093D7
:101F2000F6039FEF9093F5031092F4036093F3038D
:101F3000A8EFB3E0E3EDF3E090E069132BC010925B
:101F4000D2039091D203880F892B8093D203809182
:101F5000D103813019F51092D1038091D20380937F
:101F6000BB008091BC0083FDF8CF85EC8093BC0062
:101F70008091F7038230E1F38091F5038F3F91F078
:101F80008091F503803281F08091F503803371F008
:101F900084E008952D9121939F5FCFCF85EEE6CF0A
:101FA00081E0089580E0089582E0089583E0089537
:101FB000482F6091CE028091D0030E94850F10922D
:101FC000CD021092CE021092CF030895613208F034
:101FD00043C09091F7039111FCCF91E09093F703E8
:101FE0009093F6032FEF2093F5031092F403260F3E
:101FF0002093F3039093D2039091D203880F892BFF
:102000008093D2038091D103813001F51092D103E6
:102010008091D2038093BB008091BC0083FDF8CFF8
:1020200085EC8093BC008091F7038130E1F38091CF
:10203000F403861710F46091F403E3EDF3E0AFEAE4
:10204000B3E080E0861304C0862F089585EEE9CFC3
:1020500091919D938F5FF6CF60E0F6CF8F929F9224
:10206000AF92BF92CF92DF92EF92FF92CF93DF9326
:10207000A09197028823A9F13A2F8091980290E0CD
:10208000880F991FAC014E595E4FC0909D02D090B1
:102090009E02E0909F02F090A00260E070E0CB0111
:1020A000FA01C591D49128812A2323130FC04B0133
:1020B0005C012FEF821A920AA20AB20A6C157D0502
:1020C0008E059F0580F060E070E0CB01DF91CF913D
:1020D000FF90EF90DF90CF90BF90AF909F908F9048
:1020E000089530E0CACFC501B401DACF85ED809301
:1020F000BC008091BC0084FDFCCF1092F7030895D2
:10210000613298F42091F703243089F460938C03B2
:10211000282FACE6B3E0FC018E2F821B861710F04F
:1021200080E0089581918D93F7CF81E0089582E05A
:10213000089508958091C00290E02091BF0230E0A0
:102140008217930734F481559C4FFC01808190E005
:1021500008958FEF9FEF08952091C002822F90E0A5
:102160004091BF0250E0841795074CF481559C4F75
:10217000FC01808190E02F5F2093C00208958FEFD3
:102180009FEF08958091BF0290E02091C002821BD2
:1021900091090895CF92DF92EF92FF920F931F93D0
:1021A000CF93DF937C01CB018A012091CF032223BF
:1021B00089F0EB016B01C40ED51ECC15DD0569F06D
:1021C0006991D701ED91FC910190F081E02DC7015B
:1021D0000995F3CF642F0E948010C801DF91CF9141
:1021E0001F910F91FF90EF90DF90CF900895CF93C4
:1021F000DF931F92CDB7DEB769832091CF032223EF
:1022000009F12091CE0230E0203231055CF021E06E
:1022100030E0FC013383228380E090E00F90DF9177
:10222000CF9108958091CD02E82FF0E0E850FC4F67
:10223000998190838F5F8093CD028093CE0281E05D
:1022400090E0ECCF61E0CE0101960E948010F7CFC4
:10225000FC01918D828D981761F0828DDF01A80FAE
:10226000B11D5D968C91928D9F5F9F73928F90E0D0
:1022700008958FEF9FEF0895FC01918D828D98173F
:1022800031F0828DE80FF11D858D90E008958FEF7C
:102290009FEF0895FC01918D228D892F90E0805C45
:1022A0009F4F821B91098F739927089582EC96E1C5
:1022B000892B49F080E090E0892B29F00E94C2161A
:1022C00081110C94000008950F931F93CF93DF9317
:1022D000EC018C01085D1F4F60E070E0CB01C0177E
:1022E000D10739F029913991499159910E9444219E
:1022F000F6CF20E030E040E251E40E94B021DF91CF
:10230000CF911F910F910895009799F0FC010190D2
:102310000020E9F73197AF01481B590BE091CF023C
:10232000F091D0020280F381E02DBC018FEC92E0AD
:10233000099480E090E00895CF93DF930E94841188
:10234000EC0183ED91E00E9484118C0F9D1FDF91C1
:10235000CF91089581E00C94D80F91E09093CF0332
:102360008093D0031092CD021092CE0208959B016B
:1023700033272132310514F060E270E00E94E60F4D
:102380001092C0028093BF020895CF93DF93C82FAD
:1023900087E70E94AD116C2F81EC92E00E94F7104C
:1023A0000E94AA1187E70E94AD1162E070E087E702
:1023B00090E00E94B71181EC92E00E94AC10D82FFF
:1023C00080E0C82F81EC92E00E94AC10C82BD92B82
:1023D0000E94AA11CE01DF91CF910895CF93C82F0B
:1023E00087E70E94AD116C2F81EC92E00E94F710FC
:1023F0000E94AA1187E70E94AD1161E070E087E7B3
:1024000090E00E94B71181EC92E00E94AC10C82FBE
:102410000E94AA118C2FCF9108958F929F92AF9214
:10242000BF92EF92FF920F931F93CF93DF93CDB79D
:10243000DEB7A1970FB6F894DEBF0FBECDBF162F43
:10244000042F19A2242F30E0223031050CF40AE0C9
:102450007E0121E2E20EF11C802E912CA12CB12CE8
:10246000612FA50194010E947222029F101911246C
:1024700081E0E81AF1081A30F4F4105DF7011083D6
:10248000122F732FCA01232B242B252B49F7C701A9
:102490000E948411A1960FB6F894DEBF0FBECDBF87
:1024A000DF91CF911F910F91FF90EF90BF90AF9070
:1024B0009F908F900895195CE1CF0C948411E2EA0B
:1024C000F2E04481558160817181E091CF02F09109
:1024D000D0020280F381E02D8FEC92E00994CF933B
:1024E000DF930E945F12EC0183ED91E00E94841162
:1024F0008C0F9D1FDF91CF910895CF92DF92EF92C5
:10250000FF92CF93DF936B017C0197FF1FC0E09197
:10251000CF02F091D0020190F081E02D6DE28FECBE
:1025200092E00995EC0166277727CB016C197D09AC
:102530008E099F094AE00E940D128C0F9D1FDF91AA
:10254000CF91FF90EF90DF90CF9008954AE0DF9118
:10255000CF91FF90EF90DF90CF900C940D124F929F
:102560005F926F927F928F929F92AF92BF92CF9223
:10257000DF92EF92FF926B017C019B01AC010E9404
:102580005D22882309F49FC083E392E0B7C02FEF58
:102590003FEF4FE75FE4C701B6010E9458221816CB
:1025A0001CF48FE292E0AAC02FEF3FEF4FE75FEC01
:1025B000C701B6010E94D81D87FDF3CF20E030E0AF
:1025C000A901C701B6010E94D81D87FF79C0E0911B
:1025D000CF02F091D0020190F081E02D6DE28FECFE
:1025E00092E009955C01F7FAF094F7F8F0942AE08C
:1025F00037ED43EA5BE3C701B6010E9444212B019A
:102600003C010E9429226B017C010E94DD1D9B017F
:10261000AC01C301B2010E9443212B013C014AE0FD
:10262000C701B6010E940D127C018FEE91E00E945D
:102630008411EA0CFB1CE80EF91E20E030E040E2B9
:1026400051E4C301B2010E943E1E2B013C010E94D5
:1026500022224B01770FAA08BB08C501B4010E94D2
:102660007D12E80EF91EC501B4010E94DF1D9B0119
:10267000AC01C301B2010E94432120E030E040E2FE
:1026800051E40E943E1E0E942222072E000C880B5D
:10269000990B0E947D12E80EF91E83ED91E00E94D5
:1026A00084118E0D9F1DFF90EF90DF90CF90BF9013
:1026B000AF909F908F907F906F905F904F90089514
:1026C000A12CB12C94CF46015701E894B7F82FEF15
:1026D0003FEF4FE75FE7C501B4010E945D22811122
:1026E00056CF2FEF3FEF4FE75FE7C501B4010E94E0
:1026F000D81D18160CF04BCF8BE292E00E9484118B
:102700007C01CBCFFC01448155816081718182EADB
:1027100092E00C945F1787E70E94AD1164EF81ECA3
:1027200092E00E94F7106EE281EC92E00E94F710B6
:102730000E94AA1165E070E080E090E00E945E19BE
:1027400086EF0C94C511CF92DF92EF92FF920F9318
:102750001F93CF93DF93CDB7DEB7C054D1400FB6F0
:10276000F894DEBF0FBECDBF0E942F0100919902E9
:1027700010919A0220919B0230919C026B017C0186
:10278000C01AD10AE20AF30A40EDC41647E0D406A3
:10279000E104F10490F48091A102C05CDE4F0FB619
:1027A000F894DEBF0FBECDBFDF91CF911F910F9187
:1027B000FF90EF90DF90CF9008956093990270930F
:1027C0009A0280939B0290939C0210929402109222
:1027D000930210929202109291021092900261E084
:1027E000809195020E94CB186AEF70E080E090E043
:1027F0000E945E1961E0809195020E94171960E0C5
:10280000809195020E94CB1864E170E080E090E036
:102810000E945E19F89461E0809195020E94CB18A5
:1028200088E290E00E94531962E0809195020E9434
:1028300017198AE090E00E94531980E00E942E1040
:10284000672B682B692B29F41092A102789480E001
:10285000A4CF81E00E942E10672B682B692BA1F377
:102860008E010F5F1F4F6E018FEBC81A8EEFD80AD3
:10287000780180E00E942E10F701608371838283CB
:10288000938381E00E942E10F70164837583868311
:102890009783F8E0EF0EF11CEC14FD0451F77894E7
:1028A00020E030E0F801C080D180E280F3804481F4
:1028B000558166817781C114D104E104F10429F0C6
:1028C000411551056105710519F41092A102BFCFA0
:1028D000F90183E0F595E7958A95E1F7E057FD4F1B
:1028E0008081880FC416D506E606F70610F18083AE
:1028F0002F5F3F4F085F1F4F2832310599F6209117
:10290000940230E0409190028091910290E0840F17
:10291000911D40919202840F911D40919302840F6A
:10292000911D99272817390781F681E08093A1022C
:1029300034CF8160DCCF1F920F920FB60F9211241B
:102940002F933F934F935F936F937F938F939F93B7
:10295000AF93BF93EF93FF938091B900887F803648
:1029600009F44AC0F0F5883209F4A5C018F58031A1
:1029700009F499C0B8F4882309F4F5C0883009F443
:1029800092C0FF91EF91BF91AF919F918F917F91F5
:102990006F915F914F913F912F910F900FBE0F90CC
:1029A0001F901895883109F486C0803251F78093C2
:1029B000F50314C0803409F49BC040F48033B9F3AC
:1029C0008833F9F68093F50385ECAEC0803509F4C1
:1029D00083C0883509F494C0883499F60E94761033
:1029E000D0CF883909F48AC038F5883729F050F4F7
:1029F000883611F0803729F683E08093F703109230
:102A0000AE0355C0883809F479C0803919F0803890
:102A100009F0B7CF8091AE03803208F06FC0E0912B
:102A2000AE0381E08E0F8093AE038091BB00F0E097
:102A3000E257FC4F80833BC0803B39F0D0F4803AB2
:102A400009F477C0883A09F09CCF84E08093F703BB
:102A500010928D0310928C03E0E0F0E009958091D4
:102A60008C0381110FC081E080938C0310926C0362
:102A700009C0803C09F4A8CF883C09F4A5CF883B65
:102A800009F07FCFE0918D0381E08E0F80938D035D
:102A9000F0E0E459FC4F80818093BB0090918D035E
:102AA00080918C0329C08091D2038093BB0085EC78
:102AB0008093BC0066CF9091F4038091F303981744
:102AC00058F5E091F40381E08E0F8093F403F0E079
:102AD000ED52FC4F8081E9CFE091F40381E08E0F4D
:102AE0008093F4038091BB00F0E0ED52FC4F8083B3
:102AF0009091F4038091F3039817C8F285E8D8CF3A
:102B0000E091F40381E08E0F8093F4038091BB0089
:102B1000F0E0ED52FC4F80838091F60381115ECF8F
:102B200081E08093D10384EA8093BC001092F70384
:102B300028CF85EC8093BC001092F7038091AE0300
:102B4000803230F4E091AE03F0E0E257FC4F1082A7
:102B50006091AE0370E08EE893E0E0E0F0E009956C
:102B60001092AE030ECF1092F50338CF1092F703F8
:102B700081E08093F6031092D10361E082E10E942C
:102B8000CB1861E083E10E94CB18E9EBF0E0808193
:102B90008E7F808380818D7F808388E48093B800DE
:102BA00085E48093BC000895FC01848DDF01A80FAB
:102BB000B11DA35ABF4F2C91848D90E001968F7365
:102BC0009927848FA689B7892C93A089B1898C9184
:102BD00080648C93938D848D981306C00288F3894A
:102BE000E02D80818F7D80830895EF92FF920F9377
:102BF0001F93CF93DF93EC01F62E81E0888F9B8D9E
:102C00008C8D981305C0E889F989808185FD2CC0D9
:102C10000B8D10E00F5F1F4F0F731127E02E8C8D6F
:102C2000E8120CC00FB607FCFACFE889F989808159
:102C300085FFF5CFCE010E94D415F1CF8B8DFE011B
:102C4000E80FF11DE35AFF4FF0820B8FEA89FB89F1
:102C500080818062808381E090E0DF91CF911F913D
:102C60000F91FF90EF900895EE89FF896083E889C6
:102C7000F98980818064EECFCF93DF93EC01888D5A
:102C8000882351F0EA89FB89808185FD08C0A889E5
:102C9000B9898C9186FF03C0DF91CF9108950FB65B
:102CA00007FCF2CF808185FFEFCFE889F989808129
:102CB00085FFE8CFCE010E94D415E4CFCF92DF92FA
:102CC000EF92FF920F931F93CF93DF937C016A01E2
:102CD0008B01C0E0D0E0CC15DD0579F0D8016D9115
:102CE0008D01D701ED91FC910190F081E02DC7019C
:102CF0000995892B11F02196EECFCE01DF91CF916E
:102D00001F910F91FF90EF90DF90CF9008957894EE
:102D100084B5826084BD84B5816084BD85B58260E0
:102D200085BD85B5816085BDEEE6F0E0808181607E
:102D30008083E1E8F0E0108280818260808380817E
:102D400081608083E0E8F0E0808181608083E1EB56
:102D5000F0E0808184608083E0EBF0E0808181603E
:102D60008083EAE7F0E080818460808380818260F4
:102D700080838081816080838081806880831092DD
:102D8000C10008958FEC92E00E944A1121E0892B46
:102D900009F420E0822F08950F931F93CF93DF93C0
:102DA000EC018B0188819981009759F02A813B8140
:102DB0002617370730F081E0DF91CF911F910F91F7
:102DC0000895B8016F5F7F4F0E947120009759F0FE
:102DD000998388831B830A832C813D81232B59F798
:102DE000FC011082E8CF80E0E7CFCF93DF93EC01C6
:102DF00088819981009711F00E94E61F198218823C
:102E00001D821C821B821A82DF91CF9108951F922E
:102E10000F920FB60F9211242F933F934F935F930E
:102E20006F937F938F939F93AF93BF93EF93FF9392
:102E30008FEC92E00E94D415FF91EF91BF91AF917A
:102E40009F918F917F916F915F914F913F912F91C2
:102E50000F900FBE0F901F9018951F920F920FB6F4
:102E60000F9211242F938F939F93EF93FF93E091F1
:102E7000DF02F091E0028081E091E502F091E6024C
:102E800082FD1BC090818091E8028F5F8F7320913B
:102E9000E902821741F0E091E802F0E0E153FD4FD2
:102EA000958F8093E802FF91EF919F918F912F91E1
:102EB0000F900FBE0F901F9018958081F4CFEF9266
:102EC000FF920F931F93CF93DF93EC017B01672B4E
:102ED00041F480E0DF91CF911F910F91FF90EF902F
:102EE000089541155105A1F00C811D81040F151F96
:102EF000B8010E94CC16882361F3288139818C8126
:102F00009D81B701820F931F0E943C211D830C837A
:102F100081E0E0CFEF92FF920F931F93CF93DF9367
:102F2000CDB7DEB764970FB6F894DEBF0FBECDBF46
:102F30007C01CB01BA018E010F5F1F4F22E044E0FC
:102F40000E94141BFC0101900020E9F73197AF01AA
:102F5000481B590BBC01C7010E945F17811103C0B8
:102F6000C7010E94F516C70164960FB6F894DEBF3C
:102F70000FBECDBFDF91CF911F910F91FF90EF90CA
:102F80000895EF92FF920F931F93CF93DF93CDB7E6
:102F9000DEB72E970FB6F894DEBF0FBECDBF7C0113
:102FA000CB01BA012AE08E010F5F1F4FA8010E94DA
:102FB000421BF80101900020E9F73197AF01401B57
:102FC000510BB801C7010E945F17811103C0C701EF
:102FD0000E94F516C7012E960FB6F894DEBF0FBEFD
:102FE000CDBFDF91CF911F910F91FF90EF9008958A
:102FF000EF92FF920F931F93CF93DF93CDB7DEB77E
:1030000028970FB6F894DEBF0FBECDBF7C01CB0171
:103010004AE08E010F5F1F4FB8010E94371BF80175
:1030200001900020E9F73197AF01401B510BB80127
:10303000C7010E945F17811103C0C7010E94F516E6
:10304000C70128960FB6F894DEBF0FBECDBFDF9143
:10305000CF911F910F91FF90EF900895CF93DF9341
:10306000EC01FB0144815581608171810E945F17F1
:10307000811103C0CE010E94F516CE01DF91CF91E0
:103080000895EF92FF920F931F93CF93DF93EC017C
:103090008617970781F0FB01008111810115110549
:1030A00039F0E480F580B7010E94CC1681110BC085
:1030B000CE010E94F516CE01DF91CF911F910F91A5
:1030C000FF90EF900895FD82EC82B801888199818C
:1030D0000E943C21F0CFFC01808191810C94E61F7D
:1030E000FC011182108213821282158214820C94C8
:1030F0004118EF92FF920F931F93CF93DF93EC0150
:103100007B01198218821B821A821D821C82611522
:10311000710519F1FB0101900020E9F731978F014A
:10312000061B170BB8010E94CC16811109C0CE01F5
:10313000DF91CF911F910F91FF90EF900C94F516B6
:103140001D830C83B70188819981DF91CF911F91F5
:103150000F91FF90EF900C943C21DF91CF911F9144
:103160000F91FF90EF9008958E3008F08E50877089
:10317000806480937C0080917A00806480937A00E0
:1031800080917A0086FDFCCF8091780020917900B3
:1031900090E0922B089590E0FC01E855FE4F3491A9
:1031A000FC01EC56FE4F2491FC01E058FE4FE491E7
:1031B000EE23C9F0332339F0333001F1A8F4313074
:1031C00019F1323029F1F0E0EE0FFF1FEA58FE4FFF
:1031D000A591B4918FB7F894EC91611126C0209518
:1031E0002E232C938FBF08953730A9F03830C9F0C3
:1031F000343049F7809180008F7D03C0809180003A
:103200008F7780938000DFCF84B58F7784BDDBCF4D
:1032100084B58F7DFBCF8091B0008F778093B00015
:10322000D2CF8091B0008F7DF9CF2E2BDACFCF9304
:10323000DF9390E0FC01EC56FE4F249180589E4FA6
:10324000FC0184918823C9F090E0880F991FFC014C
:10325000E459FE4FA591B491FC01EA58FE4FC59187
:10326000D49161110DC09FB7F8948C912095822361
:103270008C938881282328839FBFDF91CF91089565
:10328000623051F49FB7F8943C91822F809583234C
:103290008C93E8812E2BEFCF8FB7F894EC912E2BE7
:1032A0002C938FBFEACF8230910538F0880F991F99
:1032B000880F991F05970197F1F70895CF92DF9234
:1032C000EF92FF92CF93DF936B017C010E940A0182
:1032D000EB01C114D104E104F10439F4DF91CF9181
:1032E000FF90EF90DF90CF9008950E940A016C1B31
:1032F0007D0B683E734068F381E0C81AD108E1088D
:10330000F108C851DC4FE5CF82EA92E00C946B18CB
:10331000A0E9B2E085E015968C93159785E11696A5
:103320008C931697E9E9F1E0E4911796EC931797DF
:10333000E5E8F1E0E4911896EC93189740E85EE335
:1033400060E070E01D964D935D936D937C93509774
:1033500083E290E0909359068093580665ED71E002
:1033600082EA92E00C947918E1ECF2E01382128286
:1033700088EE93E0A0E0B0E084839583A683B783D2
:103380008DE091E09183808308950E94B4190E949A
:10339000CB190C948819EFECF2E01382128288EEBC
:1033A00093E0A0E0B0E084839583A683B7838DE1AA
:1033B00091E09183808385EC90E09587848784EC0D
:1033C00090E09787868780EC90E0918B808B81ECF2
:1033D00090E0938B828B82EC90E0958B848B86ECD3
:1033E00090E0978B868B118E128E138E148E08951B
:1033F0000E948716E091DF02F091E00282E0808374
:10340000E091DB02F091DC021082E091DD02F091AC
:10341000DE028FEC80831092E702E091E302F091EC
:10342000E40286E08083E091E102F091E202808193
:1034300080618083E091E102F091E2028081886006
:103440008083E091E102F091E202808180688083D4
:10345000E091E102F091E20280818F7D8083109201
:10346000C0021092BF021092CD021092CE020E94B2
:10347000B61581E180935A06809158060E94AD11DD
:1034800060915A0681EC92E00E94F7100E94AA1106
:103490006AE070E080E090E00E945E1983E0809333
:1034A000A80280ED0E94EE11853509F0BAC08AEAC3
:1034B0000E94C5119093AA028093A9028CEA0E94EF
:1034C000C5119093AC028093AB028EEA0E94C511A5
:1034D0009093AE028093AD0280EB0E94C511909351
:1034E000BA028093B90282EB0E94C5119093BC028C
:1034F0008093BB0284EB0E94C5119093BE0280931F
:10350000BD0286EB0E94C5119093B0028093AF027A
:1035100088EB0E94C5119093B2028093B1028AEBAE
:103520000E94C5119093B4028093B3028CEB0E9469
:10353000C5119093B6028093B5028EEB0E94C5111F
:103540009093B8028093B70262E0809195020E9446
:10355000171980E398EFAFEFBFEF80939902909334
:103560009A02A0939B02B0939C0260E08BE00E94C1
:10357000171961E08CE00E94171960E08DE00E944D
:10358000171960E08AE00E94171961E089E00E9443
:10359000171961E086E00E94171961E089E00E9436
:1035A000CB1861E086E00E94CB18ECE3F6E01192C4
:1035B00011921192119286E0E835F807C1F7E4E222
:1035C000F6E08CE396E011921192119211928E170F
:1035D0009F07C9F78CE194E02CEA35E0AC01465F27
:1035E0005F4FFC011192E417F507E1F78896281761
:1035F0003907A1F70E942F016093180470931904F2
:1036000080931A0490931B0487E392E00E949C111C
:10361000C6E5D1E10E9485012097E1F30E94561191
:10362000F9CF1092020190CFEF920F931F93CF9397
:10363000DF93E80147FD16C034E0042E000C550B63
:1036400057FF03C0519541955109E32E022F242FB6
:10365000AE010E948D1BCE01DF91CF911F910F9182
:10366000EF90089534E1E9CFF8940C94C122BB2780
:103670004A3031F4992322F4BDE2909581959F4F11
:103680000C94741BBB272A3051F4992342F4BDE2F9
:1036900090958095709561957F4F8F4F9F4F0C94BB
:1036A000521BBB27FA01A62F6217710581059105F0
:1036B000330B30FB66F0AA27660F771F881F991F10
:1036C000AA1FA21710F0A21B63953850A9F7A05D9E
:1036D000AA3308F0A95DA19336F7B111B193108216
:1036E000CA010C94C81DBB27FB015527AA27880FC8
:1036F000991FAA1FA41710F0A41B83955051B9F766
:10370000A05DAA3308F0A95DA193009779F7B111E4
:10371000B1931192CB010C94C81DA9E0B0E0E3E98C
:10372000FBE10C940D1F6A01F22EB02E2BE3201743
:1037300008F44FC011E0100F012F27E0AE014F5FDA
:103740005F4F0E94F01CBC013981832F897081304A
:1037500009F441C0E1FC41C09E2D9170E0FC90E273
:10376000AE2DA071832F887033FF4AC0911137C0EE
:1037700083E08F15B0F5F81AA11108C0F6018F2D5E
:1037800020E2811130C0CF0CD11CF12C992329F0FB
:10379000D6019C93F60131966F01C6010396E2FEB5
:1037A00025C02EE4D6012C9331E411963C93119759
:1037B00012962C93FC012F2D30E221111EC08F0D8B
:1037C000911DDC011C928EEF9FEF2996ECE00C948A
:1037D000291F1CE3B1CF9DE2C3CF9BE2C1CF84E0A0
:1037E000C8CFF12CC9CF21938150CBCF2EE6F60163
:1037F000208331E631832283DDCF31932150DDCF29
:10380000232F247032FF41C091112FC023E02F15C8
:1038100010F48F2D821BA11108C0F601282F30E271
:10382000211125C0C80ED11C80E0992331F0F6018A
:10383000908396012F5F3F4F690196012D5F3F4FA7
:10384000E2FE18C099E4D6019C939EE411969C93E5
:10385000119796E412969C93F901982F40E29111EA
:1038600011C0280F311DD901ADCF24E0D0CF319345
:103870002150D6CF99E6F60190839EE6918396E695
:103880009283EACF41939150EACF41E050E0911109
:1038900002C040E050E0161617060CF075C0FB01A0
:1038A0003196E40FF51FBB2009F471C04B2D50E099
:1038B0004F5F5F4F4E0F5F1FEF2DF0E04E175F071A
:1038C00014F42F2D241B8E2D887141F4F601822FC4
:1038D00040E281115FC0C20ED11C20E0992329F083
:1038E000F6019083C60101966C01A11108C0F60192
:1038F000822F90E3811151C0C20ED11C20E0012F14
:10390000060F9A81A32FA071AA2E34FF03C0913312
:1039100009F4015010160CF043C0093008F008E01B
:10392000AB0177FF02C040E050E0FB013196E41BA1
:10393000F50BA1E0B0E0AC0FBD1FEA0FFB1F3EE2AC
:103940004B01801A91080B2D10E01195019511097A
:103950004F3FBFEF5B0721F4D6013C9311966D01F9
:1039600064177507FCF084169506E4F480814150D5
:1039700051093196D60111967D0140175107A4F0E7
:10398000D6018C936701E4CFE1E0F0E08ACF40E01C
:1039900050E090CF419381509CCF91938150AACF1A
:1039A00001E0BECF80E3E3CF6417750731F49633AF
:1039B00090F4953311F4AA2071F0F6018083F70199
:1039C000822F90E2811109C0F701E20FF11D1082F0
:1039D00080E090E0FACE81E3F0CF91938150F2CF76
:1039E000283008F027E03327DA01990F311D87FDD1
:1039F000916000966105710539F432602E5F3D9348
:103A000030E32A95E1F708959F3F30F08038710543
:103A1000610509F03C5F3C5F3D93913008F08068A0
:103A2000911DDF93CF931F930F93FF92EF92192F66
:103A3000987F9695E92F96959695E90FFF27EE5377
:103A4000FF4F99273327EE24FF24A701E7010590B4
:103A50000894079428F4360FE71EF81E491F511DDD
:103A6000660F771F881F991F0694A1F7059007948A
:103A700028F4E70EF81E491F561FC11D770F881F37
:103A8000991F661F0694A1F70590079428F4F80E75
:103A9000491F561FC71FD11D880F991F661F771F0B
:103AA0000694A1F70590079420F4490F561FC71FED
:103AB000D81F990F661F771F881F0694A9F7849156
:103AC0001095177041F0D695C79557954795F7947F
:103AD000E7941A95C1F7E8E6F0E06894159015911F
:103AE00035916591959105907FE27395E118F10A02
:103AF000430B560BC90BD009C0F7E10CF11E431F55
:103B0000561FC91FD01D7EF4703311F48A95E6CF7D
:103B1000E894015030F0080F0AF40027021708F467
:103B2000202F2395022F7A3328F079E37D932A956D
:103B3000E9F710C07D932A9589F6069497956795C5
:103B4000379517951794E118F10A430B560BC90BDB
:103B5000D00998F023957E9173957A3308F070E33D
:103B60007C932013B8F77E9170617D9330F083953C
:103B700071E37D9370E32A95E1F71124EF90FF90B4
:103B80000F911F91CF91DF91992787FD909508950F
:103B9000DC01FC01672F71917723E1F7329704C0B4
:103BA0007C916D9370836291AE17BF07C8F308953F
:103BB0000E941A1E08F481E00895E89409C097FB5A
:103BC0003EF490958095709561957F4F8F4F9F4FF4
:103BD0009923A9F0F92F96E9BB279395F695879538
:103BE00077956795B795F111F8CFFAF4BB0F11F4FB
:103BF00060FF1BC06F5F7F4F8F4F9F4F16C08823A2
:103C000011F096E911C0772321F09EE8872F762FD7
:103C100005C0662371F096E8862F70E060E02AF018
:103C20009A95660F771F881FDAF7880F9695879504
:103C300097F90895990F0008550FAA0BE0E8FEEFD9
:103C400016161706E807F907C0F012161306E40760
:103C5000F50798F0621B730B840B950B39F40A2659
:103C600061F0232B242B252B21F408950A2609F437
:103C7000A140A6958FEF811D811D08950E94511EC0
:103C80000C94C21E0E94B41E38F00E94BB1E20F08D
:103C9000952311F00C94AB1E0C94B11E11240C94BE
:103CA000F61E0E94D31E70F3959FC1F3950F50E04E
:103CB000551F629FF001729FBB27F00DB11D639FDE
:103CC000AA27F00DB11DAA1F649F6627B00DA11D84
:103CD000661F829F2227B00DA11D621F739FB00D2A
:103CE000A11D621F839FA00D611D221F749F33279A
:103CF000A00D611D231F849F600D211D822F762F33
:103D00006A2F11249F5750409AF0F1F088234AF00F
:103D1000EE0FFF1FBB1F661F771F881F915050407B
:103D2000A9F79E3F510580F00C94AB1E0C94F61E33
:103D30005F3FE4F3983ED4F3869577956795B79502
:103D4000F795E7959F5FC1F7FE2B880F911D96951C
:103D5000879597F9089597F99F6780E870E060E08C
:103D600008959FEF80EC089500240A941616170614
:103D700018060906089500240A941216130614065C
:103D800005060895092E0394000C11F4882352F0BF
:103D9000BB0F40F4BF2B11F460FF04C06F5F7F4F77
:103DA0008F4F9F4F089557FD9058440F551F59F05E
:103DB0005F3F71F04795880F97FB991F61F09F3F18
:103DC00079F087950895121613061406551FF2CF41
:103DD0004695F1DF08C0161617061806991FF1CF91
:103DE00086957105610508940895E894BB276627B8
:103DF0007727CB0197F908950E943E1FA59F900D4C
:103E0000B49F900DA49F800D911D112408952F92B1
:103E10003F924F925F926F927F928F929F92AF925A
:103E2000BF92CF92DF92EF92FF920F931F93CF93A7
:103E3000DF93CDB7DEB7CA1BDB0B0FB6F894DEBF3E
:103E40000FBECDBF09942A88398848885F846E8464
:103E50007D848C849B84AA84B984C884DF80EE80AE
:103E6000FD800C811B81AA81B981CE0FD11D0FB6B7
:103E7000F894DEBF0FBECDBFED010895A29FB00143
:103E8000B39FC001A39F700D811D1124911DB29F8E
:103E9000700D811D1124911D08950F931F93CF93D1
:103EA000DF938230910510F482E090E0E0915D06AE
:103EB000F0915E0620E030E0A0E0B0E0309799F4A9
:103EC0002115310509F447C0281B390B2430310571
:103ED000C0F58A819B816115710571F1FB019383A6
:103EE0008283FE0111C040815181028113814817F4
:103EF0005907F8F04817590799F4109761F012968E
:103F00000C93129713961C933296CF01DF91CF91A9
:103F10001F910F91089500935D0610935E06F4CFF4
:103F20002115310519F04217530718F49A01BD0104
:103F3000EF01DF01F801C2CF90935E0680935D062A
:103F4000D0CFFE01E20FF31F8193919322503109EC
:103F500039832883DACF20915B0630915C06232BCE
:103F600041F4209105013091060130935C062093C5
:103F70005B0620910301309104012115310541F4C4
:103F80002DB73EB74091070150910801241B350B16
:103F9000E0915B06F0915C06E217F307A0F42E1B9C
:103FA0003F0B2817390778F0AC014E5F5F4F24179D
:103FB000350748F04E0F5F1F50935C0640935B0639
:103FC00081939193A2CFE0E0F0E09FCFCF93DF9376
:103FD0000097D1F0FC01329713821282A0915D0606
:103FE000B0915E06109799F420813181820F931F62
:103FF00020915B0630915C062817390709F066C0EE
:10400000F0935C06E0935B06DF91CF910895ED019C
:1040100020E030E0CE17DF0708F03FC04A815B8127
:104020009E0141155105B9F5E901FB83EA834991E8
:104030005991C40FD51FEC17FD0761F48081918160
:104040000296840F951FE901998388838281938169
:104050009B838A83E0E0F0E012968D919C91139708
:104060000097C9F52D913C911197CD010296820FD1
:10407000931F20915B0630915C062817390721F6C3
:10408000309761F510925E0610925D06B0935C0663
:10409000A0935B06B9CFEA01BDCFD383C283408131
:1040A0005181840F951FC817D90761F44E5F5F4F88
:1040B00088819981480F591F518340838A819B8150
:1040C000938382832115310509F0AECFF0935E060C
:1040D000E0935D0699CFFD01DC01BECF1382128211
:1040E000D5CFA0E0B0E0E7E7F0E20C94091F8C0127
:1040F000009751F4CB010E944D1F8C01C801CDB730
:10410000DEB7E0E10C94251FFC01E60FF71F9C01D0
:1041100022503109E217F30708F4A2C0D901CD916A
:10412000DC911197C617D70798F0C530D10530F349
:10413000CE0104978617970708F3C61BD70B229763
:10414000C193D1936D937C93CF010E94E61FD6CF8C
:104150005B01AC1ABD0A4C018C0E9D1EA0915D0640
:10416000B0915E06E12CF12C412C512C109731F5C9
:1041700080915B0690915C068816990609F061C0F3
:10418000E616F70608F05DC08091030190910401E6
:10419000009741F48DB79EB74091070150910801F7
:1041A000841B950BE817F90708F05AC0F0935C06DA
:1041B000E0935B06F90171836083A0CF8D919C91A0
:1041C000119712966C90129713967C901397A815DE
:1041D000B90581F56C0142E0C40ED11CCA14DB04A0
:1041E00048F1DC01AA19BB097D0142E0E40EF11C93
:1041F00045E0E416F10490F062827382B183A083FB
:10420000D9016D937C933F014114510471F0D201A7
:1042100012966C92129713967C9270CF22968C0F06
:104220009D1FF90191838083EFCF60925D067092AC
:104230005E0664CFE816F90608F47C012D01D3016F
:1042400095CFCB010E944D1F7C01009749F0AE0134
:10425000B8010E943321C8010E94E61F87014ECF9A
:1042600000E010E04BCFFB01DC0102C001900D9299
:1042700041505040D8F70895FB01DC0101900D92A8
:104280000020E1F708955058BB27AA270E945B2120
:104290000C94C21E0E94B41E38F00E94BB1E20F077
:1042A00039F49F3F19F426F40C94B11E0EF4E095F6
:1042B000E7FB0C94AB1EE92F0E94D31E58F3BA17EC
:1042C000620773078407950720F079F4A6F50C942C
:1042D000F51E0EF4E0950B2EBA2FA02D0B01B9019F
:1042E00090010C01CA01A0011124FF27591B99F06C
:1042F000593F50F4503E68F11A16F040A22F232F78
:10430000342F4427585FF3CF469537952795A795C7
:10431000F0405395C9F77EF41F16BA0B620B730B6E
:10432000840BBAF09150A1F0FF0FBB1F661F771FDF
:10433000881FC2F70EC0BA0F621F731F841F48F494
:10434000879577956795B795F7959E3F08F0B0CF1D
:104350009395880F08F09927EE0F97958795089504
:104360000E94C4210C94C21E0E94BB1E58F00E94E1
:10437000B41E40F029F45F3F29F00C94AB1E51119C
:104380000C94F61E0C94B11E0E94D31E68F3992360
:10439000B1F3552391F3951B550BBB27AA27621741
:1043A0007307840738F09F5F5F4F220F331F441F4E
:1043B000AA1FA9F335D00E2E3AF0E0E832D0915082
:1043C0005040E695001CCAF72BD0FE2F29D0660F6F
:1043D000771F881FBB1F261737074807AB07B0E8B2
:1043E00009F0BB0B802DBF01FF2793585F4F3AF0B8
:1043F0009E3F510578F00C94AB1E0C94F61E5F3F67
:10440000E4F3983ED4F3869577956795B795F7953D
:104410009F5FC9F7880F911D9695879597F9089525
:10442000E1E0660F771F881FBB1F621773078407C1
:10443000BA0720F0621B730B840BBA0BEE1F88F7D0
:10444000E09508950E9429226894B1110C94F61EFB
:1044500008950E94DB1E88F09F5798F0B92F992786
:10446000B751B0F0E1F0660F771F881F991F1AF05F
:10447000BA95C9F714C0B13091F00E94F51EB1E0B1
:1044800008950C94F51E672F782F8827B85F39F0B0
:10449000B93FCCF3869577956795B395D9F73EF4F8
:1044A00090958095709561957F4F8F4F9F4F0895A0
:1044B0000E941A1E08F48FEF08950E941A1E880B9E
:1044C000990B0895DB018F939F930E94FC1EBF916F
:1044D000AF91A29F800D911DA39F900DB29F900D53
:1044E00011240895A1E21A2EAA1BBB1BFD010DC0C9
:1044F000AA1FBB1FEE1FFF1FA217B307E407F50794
:1045000020F0A21BB30BE40BF50B661F771F881F6F
:10451000991F1A9469F760957095809590959B0105
:10452000AC01BD01CF010895052E97FB1EF4009448
:104530000E94AB2257FD07D00E94722207FC03D0D5
:104540004EF40C94AB2250954095309521953F4FF9
:104550004F4F5F4F089590958095709561957F4F6F
:104560008F4F9F4F0895B7FF0C94FC1E0E94FC1EB6
:10457000821B930B0895EE0FFF1F0590F491E02D21
:10458000099410E0CFEDD0E004C0FE010E94BB22F0
:0C4590002196C03ED107C9F7F894FFCF78
:10459C0001010100005F06200000000000F710CAB6
:1045AC0010C210AC109A10991000000000F5155EA6
:1045BC00164A1128113C113C16204D5156353A0023
:1045CC004D51563A0020564D51323A0020564D511D
:1045DC00313A0020564D5132353A00204D43544D5E
:1045EC00503A00204D435643433A002056494E3A28
:1045FC0000204C55583A002044544D503A00204469
:10460C0048554D3A002042544D503A0020425052E9
:10461C00453A00205244593A31204456473A313BEE
:10462C000A00205244593A30204456473A303B0A4B
:10463C00004657205645523A2000312E302E33007A
:10464C0044656275673A00207264746D705B005D3E
:10465C005B005D3D002064746D705B00206C746DBC
:10466C00705B000D0A006C6F6F705F693A2000720E
:10467C006E643A20005363616E6E696E672E2E2E47
:10468C000049324320617420307800300020202112
:10469C000055206572726F72206174203078004E64
:1046AC006F20493243206465766963657320666FB9
:1046BC00756E640A00646F6E650A00696E66006F41
:1046CC007666006E616E0053544152544F4B3A3132
:0246DC003B00A1
:00000001FF
